300000053Patient X LNamPatient XX1966-07-012013-09-102013-10-1135744IBUPROFEN                     ZA                                                                                                                                                                                                                                                                                                                                 
300000030Patient X LNamPatient XX1954-01-092013-05-212014-05-2126534SIMVASTATIN                   ZA                                                                                                                                                                   1003999376                                                                                                                                                    
300000049Patient X LNamPatient XX1954-02-042013-02-182014-02-1810810METFORMIN HCL                 ZA                                                                                                                                                                   1558366591                                                                                                                                                    
300000044Patient X LNamPatient XX1987-04-132013-06-082014-06-0864325LAMOTRIGINE                   ZA                                                                                                                                                                                                                                                                                                                                 
300000051Patient X LNamPatient XX1954-01-262013-04-232014-04-2301070URSODIOL                      NA                                                                                                                                                                                                                                                                                                                                 
300000053Patient X LNamPatient XX1966-07-012013-09-102013-10-0107221TRAMADOL HCL                  ZA                                                                                                                                                                                                                                                                                                                                 
300000049Patient X LNamPatient XX1954-02-042013-02-182014-02-1825540GEMFIBROZIL                   ZA                                                                                                                                                                   1558366591                                                                                                                                                    
300000044Patient X LNamPatient XX1987-04-132013-06-082014-06-0816353FLUOXETINE HCL                ZA                                                                                                                                                                                                                                                                                                                                 
300000051Patient X LNamPatient XX1954-01-262013-05-262014-05-2634490ATOVAQUONE                    NA                                                                                                                                                                   1245373703                                                                                                                                                    
300000049Patient X LNamPatient XX1954-02-042013-02-182014-02-1834824HYDROCHLOROTHIAZIDE           NA                                                                                                                                                                   1558366591                                                                                                                                                    
300000051Patient X LNamPatient XX1954-01-262013-07-212014-07-2146430FAMOTIDINE                    NA                                                                                                                                                                   1295889202                                                                                                                                                    
300000049Patient X LNamPatient XX1954-02-042013-02-182014-02-1841681ALBUTEROL SULFATE             ZA                                                                                                                                                                   1558366591                                                                                                                                                    
300000051Patient X LNamPatient XX1954-01-262013-07-272014-07-2751957CITRIC ACID/SODIUM CITRATE    NA                                                                                                                                                                   1295889202                                                                                                                                                    
300000049Patient X LNamPatient XX1954-02-042013-02-182014-02-1824621IPRATROPIUM BROMIDE           ZA                                                                                                                                                                   1558366591                                                                                                                                                    
300000051Patient X LNamPatient XX1954-01-262013-05-262014-05-2613088VALGANCICLOVIR HCL            ZA                                                                                                                                                                   1245373703                                                                                                                                                    
300000049Patient X LNamPatient XX1954-02-042013-02-182014-02-1802222NIFEDIPINE                    ZA                                                                                                                                                                   1558366591                                                                                                                                                    
300000051Patient X LNamPatient XX1954-01-262013-01-292014-01-2928530RIFAXIMIN                     YA                                                                                                                                                                   1245373703                                                                                                                                                    
300000049Patient X LNamPatient XX1954-02-042013-02-182014-02-1800962ENALAPRIL MALEATE             ZA                                                                                                                                                                   1558366591                                                                                                                                                    
300000051Patient X LNamPatient XX1954-01-262013-01-292014-01-2928530RIFAXIMIN                      A                                                                                                                                                                   1245373703                                                                                                                                                    
