300000030Patient X LNamPatient XX1954-01-092013-03-232013-08-30   W7350    9999MT SINAI HOSP MED CTR CHICAGO 3615090000041932496114MT SINAI HOSP MED CTR CHICAGO 1500 S CALIFORNIA AVE                                       CHICAGO        IL60608172977325753007732575330222
300000051Patient X LNamPatient XX1954-01-262013-06-052014-06-05   W8996     366NAM TERESA                    036124361   1962638148GILLEON CHERIE                840 WEST IRVING PARK          SUITE 205                     CHICAGO        IL6061330117739756705          888
300000030Patient X LNamPatient XX1954-01-092013-03-232013-08-30   W7860    9999MT SINAI HOSP MED CTR CHICAGO 3615090000041932496114MT SINAI HOSP MED CTR CHICAGO 1500 S CALIFORNIA AVE                                       CHICAGO        IL60608172977325753007732575330222
300000030Patient X LNamPatient XX1954-01-092013-08-312014-03-03   W7070    9999MT SINAI HOSP MED CTR CHICAGO 3615090000041932496114MT SINAI HOSP MED CTR CHICAGO 1500 S CALIFORNIA AVE                                       CHICAGO        IL60608172977325753007732575330222
300000030Patient X LNamPatient XX1954-01-092013-08-312014-03-03   W7074    9999MT SINAI HOSP MED CTR CHICAGO 3615090000041932496114MT SINAI HOSP MED CTR CHICAGO 1500 S CALIFORNIA AVE                                       CHICAGO        IL60608172977325753007732575330222
300000030Patient X LNamPatient XX1954-01-092013-08-312014-03-03   W7574    9999MT SINAI HOSP MED CTR CHICAGO 3615090000041932496114MT SINAI HOSP MED CTR CHICAGO 1500 S CALIFORNIA AVE                                       CHICAGO        IL60608172977325753007732575330222
300000030Patient X LNamPatient XX1954-01-092013-08-312014-03-03   W7860    9999MT SINAI HOSP MED CTR CHICAGO 3615090000041932496114MT SINAI HOSP MED CTR CHICAGO 1500 S CALIFORNIA AVE                                       CHICAGO        IL60608172977325753007732575330222
300000030Patient X LNamPatient XX1954-01-092013-08-312014-03-03   W7350    9999MT SINAI HOSP MED CTR CHICAGO 3615090000041932496114MT SINAI HOSP MED CTR CHICAGO 1500 S CALIFORNIA AVE                                       CHICAGO        IL60608172977325753007732575330222
300000030Patient X LNamPatient XX1954-01-092013-03-232013-08-30   W7574    9999MT SINAI HOSP MED CTR CHICAGO 3615090000041932496114MT SINAI HOSP MED CTR CHICAGO 1500 S CALIFORNIA AVE                                       CHICAGO        IL60608172977325753007732575330222
300000030Patient X LNamPatient XX1954-01-092013-03-232013-08-30   W7074    9999MT SINAI HOSP MED CTR CHICAGO 3615090000041932496114MT SINAI HOSP MED CTR CHICAGO 1500 S CALIFORNIA AVE                                       CHICAGO        IL60608172977325753007732575330222
300000030Patient X LNamPatient XX1954-01-092013-03-232013-08-30   W7070    9999MT SINAI HOSP MED CTR CHICAGO 3615090000041932496114MT SINAI HOSP MED CTR CHICAGO 1500 S CALIFORNIA AVE                                       CHICAGO        IL60608172977325753007732575330222
